:020000040800F2
:1000000000000220BD2D00087D280008852800087A
:100010008D280008952800089D2800080000000091
:10002000000000000000000000000000A5280008FB
:10003000B328000800000000C1280008CF280008ED
:100040000D2E00080D2E00080D2E00080D2E0008A4
:100050000D2E00080D2E00080D2E0008DB280008CC
:10006000E9280008F72800080D2E00080D2E0008CA
:100070000D2E00080D2E00080D2E00080D2E000874
:100080000D2E00080D2E00080D2E00080D2E000864
:100090000D2E00080D2E00080D2E00080D2E000854
:1000A0000D2E00080D2E00080D2E00080D2E000844
:1000B0000D2E00080D2E00080D2E00080D2E000834
:1000C0000D2E00080D2E00080D2E00080D2E000824
:1000D0000D2E00080D2E00080D2E00080D2E000814
:1000E0000D2E00080D2E00080D2E00080D2E000804
:1000F0000D2E00080D2E00080D2E00080D2E0008F4
:100100000D2E00080D2E00080D2E00080D2E0008E3
:100110000D2E00080D2E00080D2E00080D2E0008D3
:1001200005290008192900080D2E00080D2E0008C9
:100130000D2E00080D2E00080D2E00080D2E0008B3
:100140000D2E00080D2E00080D2E00080D2E0008A3
:100150000D2E00080D2E00080D2E00080D2E000893
:100160000D2E00080D2E00080D2E00080D2E000883
:100170000D2E00080D2E00080D2E000800000000B6
:080180000D2E00080D2E0008F1
:1001900010B5054C237833B9044B13B10448AFF3C1
:1001A00000800123237010BD6000002000000000CB
:1001B0008887000808B5034B1BB103490348AFF318
:1001C000008008BD0000000064000020888700084F
:1001D000034613F8012B002AFBD1181A0138704787
:1001E00001F0FF01102A2BDB10F0070F08D010F8E8
:1001F000013B013A8B422DD010F0070F42B3F6D1EC
:10020000F0B441EA012141EA014122F007047FF004
:1002100000070023F0E80256083C85EA010586EA5B
:10022000010685FA47F5A3FA87F586FA47F6A5FA97
:1002300087F68EB9EED1F0BC01F0FF0102F00702A3
:1002400032B110F8013B013A83EA010313B1F8D14E
:100250000020704701387047002D06BF354603382F
:10026000073815F0010F07D1013015F4807F02BF68
:10027000013015F4C03F0130F0BC0138704700BFB9
:1002800070B54FF0FF0C4CF4E06C1CEA11541DBF2C
:100290001CEA135594EA0C0F95EA0C0F00F0DEF8F7
:1002A0002C4481EA030621EA4C5123EA4C5350EADC
:1002B000013518BF52EA033541F4801143F480132D
:1002C00038D0A0FB02CE4FF00005E1FB02E506F0BE
:1002D0000042E0FB03E54FF00006E1FB03569CF013
:1002E000000F18BF4EF0010EA4F1FF04B6F5007F19
:1002F00064F5407404D25FEA4E0E6D4146EB06068B
:1003000042EAC62141EA55514FEAC52040EA5E5013
:100310004FEACE2EB4F1FD0C88BFBCF5E06F1ED8BD
:10032000BEF1004F08BF5FEA500E50F1000041EBF4
:10033000045170BD06F0004646EA010140EA0200A1
:1003400081EA0301B4EB5C04C2BFD4EB0C0541EAC3
:10035000045170BD41F480114FF0000E013C00F3D8
:10036000AB8014F1360FDEBF002001F0004170BDFC
:10037000C4F10004203C35DA0C341BDC04F1140415
:10038000C4F1200500FA05F320FA04F001FA05F2A1
:1003900040EA020001F0004221F0004110EBD3706E
:1003A00021FA04F642EB06015EEA430E08BF20EA9A
:1003B000D37070BDC4F10C04C4F1200500FA04F33D
:1003C00020FA05F001FA04F240EA020001F00041CF
:1003D00010EBD37041F100015EEA430E08BF20EA42
:1003E000D37070BDC4F1200500FA05F24EEA020E8A
:1003F00020FA04F301FA05F243EA020321FA04F0B9
:1004000001F0004121FA04F220EA020000EBD3706F
:100410005EEA430E08BF20EAD37070BD94F0000F6F
:100420000FD101F00046400041EB010111F4801FA3
:1004300008BF013CF7D041EA060195F0000F18BF54
:10044000704703F00046520043EB030313F4801F90
:1004500008BF013DF7D043EA0603704794EA0C0F4A
:100460000CEA135518BF95EA0C0F0CD050EA410660
:1004700018BF52EA4306D1D181EA030101F00041DD
:100480004FF0000070BD50EA410606BF1046194605
:1004900052EA430619D094EA0C0F02D150EA013611
:1004A00013D195EA0C0F05D152EA03361CBF104652
:1004B00019460AD181EA030101F0004141F0FE41F1
:1004C00041F470014FF0000070BD41F0FE4141F475
:1004D000780170BD81F0004102E000BF83F000436D
:1004E00030B54FEA41044FEA430594EA050F08BFCF
:1004F00090EA020F1FBF54EA000C55EA020C7FEA93
:10050000645C7FEA655C00F0E2804FEA5454D4EB0F
:100510005555B8BF6D420CDD2C4480EA020281EAD9
:10052000030382EA000083EA010180EA020281EA11
:100530000303362D88BF30BD11F0004F4FEA013163
:100540004FF4801C4CEA113102D0404261EB410172
:1005500013F0004F4FEA03334CEA133302D05242F8
:1005600063EB430394EA050F00F0A780A4F10104B4
:10057000D5F1200E0DDB02FA0EFC22FA05F28018EE
:1005800041F1000103FA0EF2801843FA05F35941D4
:100590000EE0A5F120050EF1200E012A03FA0EFC53
:1005A00028BF4CF0020C43FA05F3C01851EBE3717D
:1005B00001F0004507D54FF0000EDCF1000C7EEB9A
:1005C00000006EEB0101B1F5801F1BD3B1F5001FD8
:1005D0000CD349085FEA30004FEA3C0C04F10104F7
:1005E0004FEA445212F5800F80F09A80BCF1004F20
:1005F00008BF5FEA500C50F1000041EB045141EAA2
:10060000050130BD5FEA4C0C404141EB0101013C6A
:1006100028BFB1F5801FE9D291F0000F04BF014659
:100620000020B1FA81F308BF2033A3F10B03B3F12B
:1006300020020CDA0C3208DD02F1140CC2F10C02BB
:1006400001FA0CF021FA02F10CE002F11402D8BF19
:10065000C2F1200C01FA02F120FA0CFCDCBF41EAE5
:100660000C019040E41AA2BF01EB0451294330BDB4
:100670006FEA04041F3C1CDA0C340EDC04F1140491
:10068000C4F1200220FA04F001FA02F340EA030068
:1006900021FA04F345EA030130BDC4F10C04C4F1AE
:1006A000200220FA02F001FA04F340EA030029468E
:1006B00030BD21FA04F0294630BD94F0000F83F4D8
:1006C000801306BF81F480110134013D4EE77FEABB
:1006D000645C18BF7FEA655C29D094EA050F08BF07
:1006E00090EA020F05D054EA000C04BF19461046E8
:1006F00030BD91EA030F1EBF0021002030BD5FEA2C
:10070000545C05D14000494128BF41F0004130BD53
:1007100014F580043CBF01F5801130BD01F00045A7
:1007200045F0FE4141F470014FF0000030BD7FEA1A
:10073000645C1ABF194610467FEA655C1CBF0B4615
:10074000024650EA013406BF52EA033591EA030F2C
:1007500041F4002130BD00BF90F0000F04BF002124
:10076000704730B54FF4806404F132044FF0000557
:100770004FF0000150E700BF90F0000F04BF0021D0
:10078000704730B54FF4806404F1320410F0004536
:1007900048BF40424FF000013EE700BF42004FEA31
:1007A000E2014FEA31014FEA02701FBF12F07F43AE
:1007B00093F07F4F81F06051704732F07F4208BF65
:1007C000704793F07F4F04BF41F40021704730B56C
:1007D0004FF4607401F0004521F000411CE700BFB8
:1007E00050EA010208BF704730B54FF000050AE03B
:1007F00050EA010208BF704730B511F0004502D53C
:10080000404261EB41014FF4806404F132045FEA3D
:10081000915C3FF4D8AE4FF003025FEADC0C18BFE6
:1008200003325FEADC0C18BF033202EBDC02C2F1D8
:10083000200300FA03FC20FA02F001FA03FE40EA6A
:100840000E0021FA02F11444BDE600BF4FEA410256
:1008500012F5001215D211D56FF47873B3EB625212
:1008600012D94FEAC12343F0004343EA505311F039
:10087000004F23FA02F018BF404270474FF00000CB
:10088000704750EA013005D111F0004008BF6FF009
:10089000004070474FF00000704700BF53B94AB99D
:1008A000002908BF00281CBF4FF0FF314FF0FF3078
:1008B00000F088B9ADF1080C6DE904CE00F006F83F
:1008C000DDF804E0DDE9022304B070472DE9F047CC
:1008D000089D8E4604468846002B4AD18A42174618
:1008E00062D9B2FA82F64EB1C6F1200301FA06F8D7
:1008F00020FA03F3B74043EA0808B4404FEA174E22
:100900001FFA87FCB8FBFEF1230C0EFB118843EAAB
:10091000084301FB0CF29A4209D9FB1801F1FF30A0
:1009200080F0EA809A4240F2E78002393B449A1A0A
:10093000A3B2B2FBFEF00EFB102243EA024300FB1F
:100940000CFC9C4509D9FB1800F1FF3280F0D680E1
:100950009C4540F2D3803B44023840EA0140A3EB7F
:100960000C0300211DB1F3400022C5E90032BDE8AF
:10097000F0878B4205D90DB1C5E900010021084679
:10098000F5E7B3FA83F1002946D1734502D38242D9
:1009900000F20581841A6EEB030201209046002DBF
:1009A000E5D0C5E90048E2E7002A00F09080B2FAFD
:1009B00082F6002E40F0A4808A1A030C4FEA174EEC
:1009C00080B2BCB20121B2FBFEFC0EFB1C2243EA4A
:1009D000024304FB0CF29A4207D9FB180CF1FF38D2
:1009E00002D29A4200F2E080C4469B1AB3FBFEF2A8
:1009F0000EFB123340EA034302FB04F49C4207D986
:100A0000FB1802F1FF3002D29C4200F2CA8002467B
:100A10001B1B42EA0C40A5E7C1F120068B4022FADD
:100A200006F71F430EFA01F420FA06F32EFA06FE2B
:100A30004FEA1749234300FA01F81FFA87FCBEFB6F
:100A4000F9F01C0C09FB10EE44EA0E4400FB0CFE0E
:100A5000A64502FA01F209D93C1900F1FF3A80F0EB
:100A60009C80A64540F2998002383C44A4EB0E04D9
:100A70001FFA83FEB4FBF9F309FB13444EEA044466
:100A800003FB0CFCA44508D93C1903F1FF3E80F0A0
:100A90008280A4457FD9023B3C4443EA0040A4EB5A
:100AA0000C04A0FB02EC64457346E14662D35FD0C0
:100AB0005DB1B8EB030264EB090404FA06F622FA0E
:100AC00001F31E43CC40C5E9006400214FE7B1FBB0
:100AD000F2FC010C41EA0E4180B240EA01423B4681
:100AE00038463C46B846BE462026B1FBF7F1A2EB9D
:100AF000080241EA0C4166E7014618E710462CE778
:100B0000C6F120022EFA02F3B740B14020FA02F2F9
:100B10004FEA174E0A43B3FBFEF8BCB20EFB183384
:100B2000110C41EA034108FB04F9B04089454FEA42
:100B3000104380B23ED9791808F1FF3C01D28945B3
:100B40001FD8A1EB0901B1FBFEF909FB04F80EFB6C
:100B5000191192B242EA0142424529D2BA1809F16A
:100B6000FF31C4D24245C2D2A9F102013A44BEE7E4
:100B7000F0459DD2BEEB02036CEB070C0138E14659
:100B800096E7A7EB09094944A8F1020CB1FBFEF96D
:100B900009FB04F8DBE773467FE7504666E7084643
:100BA000FDE63B44023A33E7ACF1020C3B441CE760
:100BB00049469CE7A1EB0901C446B1FBFEF909FBDC
:100BC00004F8C4E7704700BF80B584B000AF3B466F
:100BD00000221A605A609A60DA60224B224A1A6038
:100BE000204B00225A601F4B00229A601D4B0022AE
:100BF0001A611C4B00221A761A4B002283F820201F
:100C0000184B4FF08052DA62164B4FF0C0629A6276
:100C1000144B0022DA60134B0122DA61114B0122DE
:100C200083F830200F4B01225A610E4802F086F9FA
:100C30000346002B01D001F0F3FD01233B600123AB
:100C40007B600123BB603B461946064802F08AFCE4
:100C50000346002B01D001F0E3FD00BF1037BD4675
:100C600080BD00BF7C0000200020014080B58AB01C
:100C700000AF786007F1140300221A605A609A608E
:100C8000DA601A617B681B682F4A934258D10023AF
:100C90003B612E4B5B6C2D4A43F4807353642B4BAA
:100CA0005B6C03F480733B613B690023FB60274B63
:100CB0001B6B264A43F001031363244B1B6B03F0A9
:100CC0000103FB60FB6802237B610323BB610023FC
:100CD000FB6107F1140319461D4803F065FB1D4B2A
:100CE0001D4A1A601B4B00225A601A4B00229A6060
:100CF000184B0022DA60174B4FF480621A61154BD3
:100D00004FF400625A61134B4FF400529A61114B39
:100D10004FF48072DA610F4B4FF400321A620D4BC0
:100D200000225A620B4802F0CFFF0346002B01D08D
:100D300001F076FD7B68074A9A63064A7B689363F5
:100D400000BF2837BD4680BD00200140003802406A
:100D500000000240C40000201064024080B582B050
:100D600000AF00237B600C4B1B6B0B4A43F48003EA
:100D70001363094B1B6B03F480037B607B680022C9
:100D80000021382002F069FF382002F082FF00BF06
:100D90000837BD4680BD00BF0038024080B58AB02C
:100DA00000AF07F1140300221A605A609A60DA60FB
:100DB0001A6100233B61274B1B6B264A43F08003DB
:100DC0001363244B1B6B03F080033B613B690023DF
:100DD000FB60204B1B6B1F4A43F0010313631D4B49
:100DE0001B6B03F00103FB60FB680023BB60194B26
:100DF0001B6B184A43F010031363164B1B6B03F075
:100E00001003BB60BB6800237B60124B1B6B114A55
:100E100043F0080313630F4B1B6B03F008037B6065
:100E20007B680E237B614FF40413BB610123FB61DC
:100E300007F114031946084803F0B6FA002200210E
:100E4000092002F00AFF092002F023FF00BF283723
:100E5000BD4680BD00380240000C024080B487B01F
:100E600000AFF860B9607A603B60BB681A047B68C9
:100E70001B021A433B6813433B6100237B6126E05E
:100E80007B69C3F11703012202FA03F31A463B6997
:100E90001340002B0CD0FA6813465B001344DB00B0
:100EA0001A467B6913440F4A3C2122F813100BE0C9
:100EB000FA6813465B001344DB001A467B6913444F
:100EC000084A1E2122F813107B6901337B617B697C
:100ED000172BD5DD00BF00BF1C37BD465DF8047B76
:100EE000704700BFEC01002080B582B000AF4FF426
:100EF000B4637B6007E00B4A7B68002122F8131083
:100F00007B6801337B607B68B3F5B96FF3DB4FF42B
:100F1000B963044A0021044804F0A4F900BF08376B
:100F2000BD4680BDEC010020B41D002080B400AFA0
:100F3000034B00221A6000BFBD465DF8047B70477A
:100F4000940D002080B584B000AF0023FB8167E1E1
:100F5000C24B1B689AB2FB891344BB81BA89C04B50
:100F6000A3FB021359090B461B015B1A9B00D31A02
:100F70009BB2BC4AA2FB03231B099BB2022B00F0CD
:100F8000DF80022B00F34981002B02D0012B6AD0B5
:100F900043E1BA89B24BA3FB021359090B461B016B
:100FA0005B1A9B00D31A9BB207EE903AB8EEE77A31
:100FB000F3EE046AC7EE267AB7EE007A77EE677A28
:100FC000C7ED027ABA89A64B83FB02131344591169
:100FD000D317C91A0B461B015B1A9B00D11A07EEE7
:100FE000901AB8EEE77AF3EE046AC7EE267AC7EDF8
:100FF000017AF889D7ED027A9FED9B7A27EE877AFE
:10100000D7ED017ADFED996A67EEA67A77EE277A57
:10101000BDEEE76AD7ED027A9FED947A27EE877AE4
:10102000D7ED017ADFED906A67EEA67A77EE277A40
:10103000FDEEE75AD7ED027A9FED8C7A27EE877A9C
:10104000D7ED017ADFED896A67EEA67A77EE277A27
:10105000FDEEE77A17EE903A15EE902A16EE101A8A
:10106000FFF7FCFED9E0BA897D4BA3FB02135909B7
:101070000B461B015B1A9B00D31A9BB2143B07EE75
:10108000903AB8EEE77AF3EE046AC7EE267AB7EE46
:10109000007A77EE677AC7ED027ABB89A3F1140272
:1010A0006F4B83FB021313445911D317C91A0B4614
:1010B0001B015B1A9B00D11A07EE901AB8EEE77A73
:1010C000F3EE046AC7EE267AC7ED017AF889D7ED08
:1010D000027A9FED667A27EE877AD7ED017ADFED07
:1010E000636A67EEA67A77EE277ABDEEE76AD7EDF8
:1010F000027A9FED5D7A27EE877AD7ED017ADFEDF0
:101100005B6A67EEA67A77EE277AFDEEE75AD7EDAF
:10111000027A9FED567A27EE877AD7ED017ADFEDD6
:10112000526A67EEA67A77EE277AFDEEE77A17EE37
:10113000903A15EE902A16EE101AFFF78FFE6CE02B
:10114000BA89474BA3FB021359090B461B015B1AD3
:101150009B00D31A9BB2283B07EE903AB8EEE77A91
:10116000F3EE046AC7EE267AB7EE007A77EE677A76
:10117000C7ED027ABB89A3F12802394B83FB021326
:1011800013445911D317C91A0B461B015B1A9B0054
:10119000D11A07EE901AB8EEE77AF3EE046AC7EEBA
:1011A000267AC7ED017AF889D7ED027A9FED2F7A7A
:1011B00027EE877AD7ED017ADFED2B6A67EEA67A04
:1011C00077EE277ABDEEE76AD7ED027A9FED277AB0
:1011D00027EE877AD7ED017ADFED246A67EEA67AEB
:1011E00077EE277AFDEEE75AD7ED027A9FED1E7A69
:1011F00027EE877AD7ED017ADFED1C6A67EEA67AD3
:1012000077EE277AFDEEE77A17EE903A15EE902A00
:1012100016EE101AFFF722FE00BFFB890133FB8197
:10122000FB893B2B7FF694AEFFF75EFE104B1B68ED
:10123000184601F05FFE094B1B683B2B03DDFFF7EF
:1012400075FE032305E0054B1B680133034A136059
:10125000012318461037BD4680BD00BF940D002005
:1012600089888888CDCCCCCC00007F43000000006A
:101270000000002080B584B000AF4C4B1B68002BF1
:1012800024D10023FB600CE0494B1B68C3F1FF0134
:10129000474B1A680023F868FFF7E0FDFB6801334D
:1012A000FB60FB683B2BEFDDFFF71EFE404B1B682E
:1012B00001333F4A13603E4B1B68FF2B57DD3D4B0C
:1012C00001221A603A4B00221A6050E0374B1B682B
:1012D000012B24D10023BB600CE0374B1B68C3F10A
:1012E000FF02354B1B680021B868FFF7B7FDBB68EC
:1012F0000133BB60BB683B2BEFDDFFF7F5FD2E4BE9
:101300001B6801332C4A13602B4B1B68FF2B2EDD0F
:10131000284B01221A60284B00221A6027E0234B39
:101320001B68022B23D100237B600CE0234B196840
:10133000224B1B68C3F1FF0300227868FFF78EFD84
:101340007B6801337B607B683B2BEFDDFFF7CCFDD7
:101350001A4B1B680133194A1360184B1B68FF2B8B
:1013600005DD144B01221A60144B00221A60114B48
:101370001B68012B10D10F4B00221A600B4B1B680E
:10138000591C0F4B83FB0132CB17D21A13465B005B
:101390001344CA1A054B1A600A4B1B68184601F021
:1013A000A9FD00BF1037BD4680BD00BF980D0020CD
:1013B000A00D00209C0D0020A40D0020A80D0020F1
:1013C000565555550000002080B584B000AF574BEE
:1013D0001B68002B24D10023FB600CE0544B1B68DE
:1013E000C3F1FF01524B1A680023F868FFF736FD7E
:1013F000FB680133FB60FB683B2BEFDDFFF774FDFF
:101400004B4B1B6801334A4A1360494B1B68FF2B47
:1014100057DD484B01221A60454B00221A6050E00C
:10142000424B1B68012B24D10023BB600CE0424BD4
:101430001B68C3F1FF02404B1B680021B868FFF72F
:101440000DFDBB680133BB60BB683B2BEFDDFFF7D5
:101450004BFD394B1B680133374A1360364B1B6811
:10146000FF2B2EDD334B01221A60334B00221A6012
:1014700027E02E4B1B68022B23D100237B600CE05E
:101480002E4B19682D4B1B68C3F1FF0300227868AF
:10149000FFF7E4FC7B6801337B607B683B2BEFDD6F
:1014A000FFF722FD254B1B680133244A1360234BB1
:1014B0001B68FF2B05DD1F4B01221A601F4B00220A
:1014C0001A601C4B1B68012B10D11A4B00221A60AA
:1014D000164B1B68591C1A4B83FB0132CB17D21ACF
:1014E00013465B001344CA1A104B1A60154B1B6855
:1014F000184601F0FFFC00233B6008E000230022B7
:1015000000213868FFF7AAFC3B6801333B603B6869
:101510003B2BF3DDFFF7E8FC0A4B1B68184601F094
:10152000E9FC00BF1037BD4680BD00BF980D00200C
:10153000A00D00209C0D0020A40D0020A80D00206F
:10154000565555550000002080B582B000AF0023ED
:101550007B6024E000233B6013E03A687B689A429A
:1015600006D1FF23002200213868FFF777FC05E051
:101570000023002200213868FFF770FC3B6801332C
:101580003B603B683B2BE8DDFFF7AEFC084B1B687C
:101590001433184601F0AEFC7B6801337B607B6836
:1015A0003B2BD7DD00BF00BF0837BD4680BD00BF65
:1015B0000000002080B400AF034B00221A8000BF5F
:1015C000BD465DF8047B7047AC0D002080B58AB045
:1015D00000AF00237B6215E0A84801F0F3FC0A216C
:1015E000A64801F0F4FDA54801F090FF034699B22A
:1015F000A34A7B6A22F81310A04801F0B5FD7B6A6C
:1016000001337B627B6A632BE6DD00233B620023B0
:101610007B610023FB610DE0994AFB6932F81330CE
:101620007B617B6903FB03F33A6A13443B62FB690A
:101630000133FB61FB69632BEEDD3B6A07EE903AF9
:10164000F8EE677ADFED8F6A87EEA67AB0EE470A8A
:1016500007F078F887ED040AD7ED047AFDEEE77A13
:1016600017EE902A13461B019B1A9B00864A82FBA9
:1016700003121A44D212DB17D31AFB600023BB619A
:1016800084E1BA69FB689A4280F27781BB699AB2B9
:101690007E4B1B8813447B817A897D4BA3FB02130D
:1016A00059090B461B015B1A9B00D31A9BB2794A5E
:1016B000A2FB03231B099BB2022B00F0F180022B3B
:1016C00000F36181002B02D0012B6AD05BE17A89A3
:1016D0006F4BA3FB021359090B461B015B1A9B00BE
:1016E000D31A9BB207EE903AB8EEE77AF3EE046AAB
:1016F000C7EE267AB7EE007A77EE677AC7ED017A01
:101700007A89634B83FB021313445911D317C91A07
:101710000B461B015B1A9B00D11A07EE901AB8EE1C
:10172000E77AF3EE046AC7EE267AC7ED007AD7EDC2
:10173000017A9FED597A27EE877AD7ED007ADFEDAF
:10174000576A67EEA67A77EE277ABDEEE76AD7ED9D
:10175000017A9FED527A27EE877AD7ED007ADFED96
:101760004E6A67EEA67A77EE277AFDEEE75AD7ED56
:10177000017A9FED4A7A27EE877AD7ED007ADFED7E
:10178000476A67EEA67A77EE277AFDEEE77A17EEDC
:10179000903A15EE902A16EE101AB869FFF75EFB24
:1017A000F1E07A893A4BA3FB021359090B461B015E
:1017B0005B1A9B00D31A9BB2143B07EE903AB8EE2B
:1017C000E77AF3EE046AC7EE267AB7EE007A77EE90
:1017D000677AC7ED017A7B89A3F114022C4B83FB56
:1017E000021313445911D317C91A0B461B015B1A74
:1017F0009B00D11A07EE901AB8EEE77AF3EE046A6E
:10180000C7EE267AC7ED007AD7ED017A9FED237AED
:1018100027EE877AD7ED007ADFED206A67EEA67AA9
:1018200077EE277ABDEEE76AD7ED017A9FED1A7A57
:1018300027EE877AD7ED007ADFED186A67EEA67A91
:1018400077EE277AFDEEE75AD7ED017A9FED137A0E
:1018500027EE877AD7ED007ADFED0F6A67EEA67A7A
:1018600077EE277AFDEEE77A17EE903A15EE902A9A
:1018700016EE101AB869FFF7F1FA84E07C00002038
:10188000240100200000C84281000880AC0D002027
:1018900089888888CDCCCCCC00007F430000000034
:1018A0007A89474BA3FB021359090B461B015B1AAC
:1018B0009B00D31A9BB2283B07EE903AB8EEE77A2A
:1018C000F3EE046AC7EE267AB7EE007A77EE677A0F
:1018D000C7ED017A7B89A3F12802394B83FB021300
:1018E00013445911D317C91A0B461B015B1A9B00ED
:1018F000D11A07EE901AB8EEE77AF3EE046AC7EE53
:10190000267AC7ED007AD7ED017A9FED2E7A27EE81
:10191000877AD7ED007ADFED2C6A67EEA67A77EE4C
:10192000277ABDEEE76AD7ED017A9FED267A27EE9A
:10193000877AD7ED007ADFED236A67EEA67A77EE35
:10194000277AFDEEE75AD7ED017A9FED1F7A27EE51
:10195000877AD7ED007ADFED1B6A67EEA67A77EE1D
:10196000277AFDEEE77A17EE903A15EE902A16EEFA
:10197000101AB869FFF772FA05E00023002200216F
:10198000B869FFF76BFABB690133BB61BB693B2BDD
:101990007FF777AEFFF7A8FA0A2001F0ABFA0B4BFE
:1019A0001B883B2B02D9FFF705FE05E0074B1B8880
:1019B00001339AB2054B1A8000BF2837BD4680BD5F
:1019C000898888880000000000007F43AC0D00205B
:1019D00080B590B000AF0023FB6315E06E4801F0C6
:1019E000F1FA0A216C4801F0F2FB6B4801F08EFD20
:1019F000034699B2694AFB6B22F81310664801F05E
:101A0000B3FBFB6B0133FB63FB6B632BE6DD002356
:101A1000BB6300233B6200237B630DE05F4A7B6B6B
:101A200032F813303B623B6A03FB03F3BA6B134497
:101A3000BB637B6B01337B637B6B632BEEDDBB6B2B
:101A400007EE903AF8EE677ADFED556A87EEA67AF0
:101A5000B0EE470A06F076FE87ED070AD7ED077A63
:101A60009FED507A37EE877ADFED4F6AC7EE267A20
:101A7000C7ED067AD7ED067A9FED4C7AF4EEC77A79
:101A8000F1EE10FA28D597ED067ADFED486AC7EE39
:101A9000267AC7ED037A0023FB62D7ED037A9FED28
:101AA000447A67EE877AFCEEE77AC7ED017A3B79F4
:101AB000DBB23B63B7EE007AD7ED037A77EE677A55
:101AC0009FED3B7A67EE877AFCEEE77AC7ED017A05
:101AD0003B79DBB2BB6247E0D7ED067A9FED357A02
:101AE000F4EEC77AF1EE10FA1DD5D7ED067A9FED28
:101AF0002F7A37EEC77ADFED2D6AC7EE267AC7ED6B
:101B0000047AD7ED047A9FED2A7A67EE877AFCEEA5
:101B1000E77AC7ED017A3B79DBB2FB62FF233B63D7
:101B20000023BB6220E0D7ED067A9FED227A37EEE4
:101B3000C77ADFED216AC7EE267AC7ED057AFF2363
:101B4000FB62B7EE007AD7ED057A77EE677A9FED04
:101B5000187A67EE877AFCEEE77AC7ED017A3B796F
:101B6000DBB23B630023BB6200237B6208E0BB6AFD
:101B7000FA6A396B786AFFF771F97B6A01337B6225
:101B80007B6A3B2BF3DDFFF7AFF90A2001F0B2F9D6
:101B900000BF4037BD4680BD7C00002024010020EE
:101BA0000000C8420000FA4300707345C3F5A83E28
:101BB00000007F43C3F5283F7B14AE3E80B5ADF5F2
:101BC000205D8CB000AF002307F5205202F12C02FB
:101BD00013602DE06F4A07F5205303F12C031B68B7
:101BE00052F8233007EE903AF8EE677A9FED6A7A62
:101BF00037EEC77ADFED686AC7EE267A07F5C1537C
:101C000003F110031A4607F5205303F12C031B6858
:101C10009B001344183BC3ED007A07F5205303F1F2
:101C20002C031B68013307F5205202F12C021360CC
:101C300007F5205303F12C031B68B3F5806FC9DB54
:101C400007F13003303B4FF48061184604F0D2FFB7
:101C500007F50362183A07F5C15101F1100118396F
:101C600007F130003038002305F0AEF807F13001FD
:101C7000183907F50363183B4FF40072184605F056
:101C80007FFC062307F5205202F12802136007F5B6
:101C90000363A3F618039B6907F5205202F124029F
:101CA0001360072307F5205202F1200213603DE084
:101CB00007F50363A3F6180207F5205303F1200389
:101CC0001B689B001344D3ED007A07F5205303F102
:101CD000240393ED007AB4EEE77AF1EE10FA1AD508
:101CE00007F50363A3F6180207F5205303F1200359
:101CF0001B689B0013441B6807F5205202F1240265
:101D0000136007F5205303F120031B6807F52052E9
:101D100002F12802136007F5205303F120031B682A
:101D2000013307F5205202F12002136007F520531A
:101D300003F120031B68B3F5007FB9DB174B07F5F0
:101D4000205202F11C02136007F5205303F128030F
:101D50001B6807EE903AF8EEE77A07F5205303F197
:101D60001C0393ED007A67EE277A07F5205303F101
:101D70001803C3ED007A07F5205303F118031B681D
:101D800007EE903AB0EE670A07F520573037BD46A8
:101D900080BD00BFB00D0020000000450044AC41F4
:101DA00080B58AB000AF384803F09AF94FF48062EA
:101DB0003649374801F096FA364A07F1140312689B
:101DC000114619800233120C1A70FFF7F7FE87EDE7
:101DD000080AD7ED087AFDEEE77A17EE903AFB6134
:101DE0003B46FA692C49184606F00CF83B46184663
:101DF000FEF7EEF903469AB239464FF0FF33274813
:101E000004F0A4FA07F114031846FEF7E1F90346BB
:101E10009AB207F114014FF0FF33204804F096FA0C
:101E20004FF4FA7001F066F897ED087ADFED1C6A5E
:101E3000C7EE267A9FED1B7A67EE877AFDEEE77A8A
:101E400017EE903ABB6100237B6213E07A6ABB69AC
:101E50009A4206DA00230022FF21786AFEF7FEFF8D
:101E600005E0002300220021786AFEF7F7FF7B6A75
:101E700001337B627B6A3B2BE8DDFFF735F800BF5F
:101E80002837BD4680BD00BFFC1D0020B00D0020DE
:101E90007C000020A4870008A0870008A41E002062
:101EA00000442C460000704280B5ADF5225D86B03E
:101EB00000AFC24803F014F94FF48062C049C14832
:101EC00001F010FA002307F5225202F11402136008
:101ED0002DE0BB4A07F5225303F114031B6852F8A7
:101EE000233007EE903AF8EE677A9FEDB77A37EE37
:101EF000C77ADFEDB56AC7EE267A07F5C45303F15A
:101F000018031A4607F5225303F114031B689B00BC
:101F100013443C3BC3ED007A07F5225303F114034D
:101F20001B68013307F5225202F11402136007F512
:101F3000225303F114031B68B3F5806FC9DB07F16B
:101F40005803143B4FF48061184604F053FE07F623
:101F500098023C3A07F5C35101F118011C3907F109
:101F600058001438002304F02FFF07F198013C3982
:101F700007F698033C3B4FF40072184605F000FB4F
:101F800007F69803A3F63C03D3ED017AFDEEE77A5A
:101F900017EE903A07F5225202F110021360012366
:101FA00007F5225202F10402136007F69803A3F624
:101FB0003C03D3ED0F7AFDEEE77A17EE903A07F582
:101FC000225202F10C0213600F2307F52252136014
:101FD00007F69803A3F63C03D3EDB67AFDEEE77A55
:101FE00017EE903A07F5225202F10802136007F645
:101FF0009803A3F63C03D3EDB67AFDEEE77A17EE2D
:10200000903A07F5215202F13C021360012307F5D3
:10201000215202F13802136045E007F5225303F123
:1020200010031B6807EE903AB8EEE77A07F69803BC
:10203000A3F63C0207F5215303F138031B689B000C
:102040001344D3ED007AB4EEE77AF1EE10FA1FD51F
:1020500007F69803A3F63C0207F5215303F1380372
:102060001B689B001344D3ED007AFDEEE77A17EE70
:10207000903A07F5225202F11002136007F521533E
:1020800003F138031B6807F5225202F104021360C2
:1020900007F5215303F138031B68013307F521527B
:1020A00002F13802136007F5215303F138031B686E
:1020B0000E2BB2DD07F5225303F104031A68134611
:1020C0001B01134407F5215202F1280213600F236C
:1020D00007F5215202F13402136043E007F5225361
:1020E00003F10C031B6807EE903AB8EEE77A07F6A7
:1020F0009803A3F63C0207F5215303F134031B6850
:102100009B001344D3ED007AB4EEE77AF1EE10FAB7
:102110001DD507F69803A3F63C0207F5215303F1FA
:1021200034031B689B001344D3ED007AFDEEE77A7D
:1021300017EE903A07F5225202F10C02136007F5F0
:10214000215303F134031B6807F52252136007F58E
:10215000215303F134031B68013307F5215202F1C7
:102160003402136007F5215303F134031B68B52BC8
:10217000B4DD07F522531B680F3B07EE903AF8EEEB
:10218000E77A17EE900AFEF709FB4FF000020F4BBB
:10219000FEF776F802460B4610461946FEF756FB48
:1021A000034607F5215202F124021360B62307F516
:1021B000215202F13002136050E000BFFC1D0020EC
:1021C000B00D00207C000020000000450000F83F1A
:1021D00007F5225303F108031B6807EE903AB8EEA7
:1021E000E77A07F69803A3F63C0207F5215303F1BB
:1021F00030031B689B001344D3ED007AB4EEE77AFA
:10220000F1EE10FA1FD507F69803A3F63C0207F586
:10221000215303F130031B689B001344D3ED007A74
:10222000FDEEE77A17EE903A07F5225202F1080226
:10223000136007F5215303F130031B6807F52152A2
:1022400002F13C02136007F5215303F130031B68D0
:10225000013307F5215202F13002136007F52153D3
:1022600003F130031B68B3F5007FB1DB07F52153A1
:1022700003F13C031B68B63B07EE903AF8EEE77AB1
:1022800017EE900AFEF78AFAA4A3D3E90023FDF71C
:10229000F7FF02460B4610461946FEF7D7FA0346EB
:1022A00007F5215202F120021360162307F521528F
:1022B00002F11C02136007F5225303F104031B68AB
:1022C00007F5215202F11C02126802FB03F307F525
:1022D000225202F10402136007F522531B6807F52E
:1022E000215202F11C02126802FB03F307F522528D
:1022F000136007F5215303F13C031B6807F52152D6
:1023000002F11C02126802FB03F307F5215202F1ED
:102310003C021360002307F5215202F12C021360E6
:1023200044E007F5215303F12C031B68132B0EDC4B
:1023300007F5215303F128031B680022002107F54C
:10234000215000F12C000068FEF788FD23E007F51E
:10235000215303F12C031B68272B0EDC00230022E2
:1023600007F5215101F12401096807F5215000F119
:102370002C000068FEF772FD0DE0002307F52152E6
:1023800002F120021268002107F5215000F12C0013
:102390000068FEF763FD07F5215303F12C031B686A
:1023A000013307F5215202F12C02136007F5215386
:1023B00003F12C031B683B2BB3DDFEF795FD07F6FD
:1023C0009803A3F65803504A126811461980023345
:1023D000120C1A7007F69803A3F65C034B4A1268B6
:1023E000114619800233120C1A7007F15803303B62
:1023F00007F5225202F1040212684549184605F019
:1024000001FD07F11803043B07F522521268404909
:10241000184605F0F7FC07F11803183B07F52152A1
:1024200002F13C0212683B49184605F0EBFC07F14B
:102430005803303B1846FDF7CBFE03469AB207F12E
:10244000580130394FF0FF33334803F07FFF07F175
:102450005803183B1846FDF7BBFE03469AB207F136
:10246000580118394FF0FF332B4803F06FFF07F185
:102470001803043B1846FDF7ABFE03469AB207F17A
:10248000180104394FF0FF33234803F05FFF07F1D1
:102490005803183B1846FDF79BFE03469AB207F116
:1024A000580118394FF0FF331B4803F04FFF07F175
:1024B0001803183B1846FDF78BFE03469AB207F146
:1024C000180118394FF0FF33134803F03FFF07F1AD
:1024D00058031C3B1846FDF77BFE03469AB207F1F2
:1024E00058011C394FF0FF330B4803F02FFF4FF416
:1024F000FA7000F0FFFC00BF07F522571837BD4601
:1025000080BD00BFAFF30080AC870008A48700083F
:10251000A0870008A8870008A41E002066666666DB
:102520006666E63F80B500AF00F072FC00F058F838
:10253000FEF734FCFEF712FC00F040FAFEF744FB15
:1025400000F0DCFA00F0C8FB00F0B2F8214B1B6889
:10255000002B1BD1204B1B68002B02D1FEF7F2FC95
:1025600033E01D4B1B68012B02D1FEF783FE2CE0EC
:10257000194B1B68022B02D1FEF726FF25E0164BF4
:102580001B68032B21D1FEF7DFFF1EE0114B1B68F8
:10259000012B1AD1114B1B68002B02D1FFF716F843
:1025A00013E00E4B1B68012B02D1FFF711FA0CE070
:1025B0000A4B1B68022B02D1FFF7F2FB05E0074B29
:1025C0001B68032B01D1FFF76FFC0A2000F092FC7F
:1025D000BCE700BF840D00207C0D0020800D002092
:1025E00080B594B000AF07F12003302200211846D7
:1025F00005F02AFC07F10C0300221A605A609A6069
:10260000DA601A610023BB60274B1B6C264A43F03B
:1026100080531364244B1B6C03F08053BB60BB6876
:1026200000237B60214B1B68204A43F480431360E6
:102630001E4B1B6803F480437B607B6801233B6275
:102640004FF480337B620223BB634FF48003FB6350
:1026500004233B6448237B640223BB640423FB64A0
:1026600007F12003184602F053F80346002B01D06F
:1026700000F0D6F80F23FB6002233B6100237B614F
:102680004FF48053BB610023FB6107F10C0302216F
:10269000184602F0B5FA0346002B01D000F0C0F84E
:1026A00000BF5037BD4680BD00380240007000407A
:1026B00080B500AF00220021392001F0CEFA392088
:1026C00001F0E7FA00220021072001F0C6FA0720F6
:1026D00001F0DFFA00220021082001F0BEFA0820F4
:1026E00001F0D7FA00BF80BD80B582B000AF0346CD
:1026F000FB80FB88022B40D1414B1B68002B1DD176
:1027000000F0ECFB03463F4A12689B1AC72B73D9B3
:102710003D4B1B6801335A4203F0030302F00302EE
:1027200058BF5342384A136000F0D8FB03461A469C
:10273000344B1A60354B14221A605DE0304B1B6835
:10274000012B59D100F0CAFB03462E4A12689B1A8E
:10275000C72B51D92E4B1B6801335A4203F0030398
:1027600002F0030258BF5342294A136000F0B6FB3F
:1027700003461A46234B1A603EE0FB88042B1ED109
:1027800000F0ACFB0346234A12689B1AC72B33D9CF
:102790001E4B1B6803F10A021F4B83FB02135911E6
:1027A000D317CB1A642101FB03F3D31A174A136022
:1027B00000F094FB03461A46164B1A601CE0FB8897
:1027C000082B19D100F08AFB0346144A12689B1AA1
:1027D000C72B11D90A4B1B68002B03D1084B0122D0
:1027E0001A6009E0064B1B68012B05D1044B00223F
:1027F0001A60064B14221A6000BF0837BD4680BD20
:10280000840D0020880D00207C0D00200000002099
:10281000800D00208C0D00201F85EB51900D0020B5
:1028200080B400AF72B600BF00BFFDE780B483B0D4
:1028300000AF00237B60104B5B6C0F4A43F4804376
:1028400053640D4B5B6C03F480437B607B68002317
:102850003B60094B1B6C084A43F080531364064BE2
:102860001B6C03F080533B603B6800BF0C37BD46D8
:102870005DF8047B704700BF0038024080B400AFB1
:1028800000BFFDE780B400AF00BFFDE780B400AF3C
:1028900000BFFDE780B400AF00BFFDE780B400AF2C
:1028A00000BFFDE780B400AF00BFBD465DF8047B0C
:1028B000704780B400AF00BFBD465DF8047B704731
:1028C00080B400AF00BFBD465DF8047B704780B5A3
:1028D00000AF00F0EFFA00BF80BD80B500AF02206E
:1028E00001F0FEFE00BF80BD80B500AF042001F006
:1028F000F7FE00BF80BD80B500AF082001F0F0FEFC
:1029000000BF80BD80B500AF024801F0E3FA00BF10
:1029100080BD00BFC400002080B500AF024801F0B8
:10292000D9FA00BF80BD00BF441E002080B586B02C
:1029300000AF7860144A154BD31A7B617B693B6109
:10294000134B1B68002B02D1114B124A1A60104B1B
:102950001A687B6813443A699A4207D205F07CFAF8
:1029600003460C221A604FF0FF3309E0084B1B6846
:10297000FB60074B1A687B681344054A1360FB68C9
:1029800018461837BD4680BD000002200004000034
:10299000B01D00203820002080B400AF064BD3F8D3
:1029A0008830054A43F47003C2F8883000BFBD4642
:1029B0005DF8047B704700BF00ED00E080B596B085
:1029C00000AF07F1480300221A605A609A60DA608B
:1029D00007F1400300221A605A6007F12403002225
:1029E0001A605A609A60DA601A615A619A613B1DF6
:1029F00020220021184605F027FA3E4B3E4A1A6075
:102A00003C4B00225A603B4B00229A60394B5922C2
:102A1000DA60384B00221A61364B00225A61354B7E
:102A200000229A61334802F00BFB0346002B01D0D1
:102A3000FFF7F6FE4FF48053BB6407F148031946D5
:102A40002C4802F099FE0346002B01D0FFF7E8FE68
:102A5000284802F0ADFB0346002B01D0FFF7E0FE53
:102A600000233B6400237B6407F14003194621489F
:102A700003F04EFB0346002B01D0FFF7D1FE60238D
:102A80007B620023BB620023FB6200233B630023C5
:102A90007B630023BB630023FB6307F12403002255
:102AA0001946144802F0A6FD0346002B01D0FFF79B
:102AB000B7FE00237B600023BB600023FB60002384
:102AC0003B6100237B614FF40053BB6100233B62F9
:102AD0003B1D1946074803F097FB0346002B01D026
:102AE000FFF79EFE034800F0BDF800BF5837BD4613
:102AF00080BD00BFB41D00200000014080B586B03D
:102B000000AF07F1080300221A605A609A60DA6089
:102B10003B4600221A605A601D4B4FF080421A60FB
:102B20001B4B0F225A601A4B00229A60184B6522E9
:102B3000DA60174B00221A61154B00229A61144883
:102B400002F07EFA0346002B01D0FFF769FE4FF436
:102B50008053BB6007F1080319460D4802F00CFED4
:102B60000346002B01D0FFF75BFE20233B600023D0
:102B70007B603B461946064803F0CAFA0346002B21
:102B800001D0FFF74DFE00BF1837BD4680BD00BF26
:102B9000FC1D002080B584B000AF78607B681B68A6
:102BA0002C4A93423ED10023FB602B4B5B6C2A4A9C
:102BB00043F001035364284B5B6C03F00103FB609B
:102BC000FB68264B264A1A60244B4FF040625A603D
:102BD000224B40229A60214B0022DA601F4B4FF4B7
:102BE00080621A611D4B4FF400625A611B4B4FF417
:102BF00000529A61194B0022DA61184B00221A62C6
:102C0000164B00225A62154801F05EF80346002B6D
:102C100001D0FFF705FE7B68104A5A620F4A7B68B5
:102C2000936312E07B681B68B3F1804F0DD10023E2
:102C3000BB60094B1B6C084A43F001031364064B4D
:102C40001B6C03F00103BB60BB6800BF1037BD46BF
:102C500080BD00BF0000014000380240441E00203B
:102C60002864024080B588B000AF786007F10C039B
:102C700000221A605A609A60DA601A617B681B68E9
:102C8000124A93421ED10023BB60114B1B6B104AAA
:102C900043F0100313630E4B1B6B03F01003BB6078
:102CA000BB684FF40073FB6002233B6100237B6130
:102CB0000023BB610123FB6107F10C0319460548A2
:102CC00001F072FB00BF2037BD4680BD000001400F
:102CD000003802400010024080B500AF114B124A8C
:102CE0001A60104B4FF4E1325A600E4B00229A608A
:102CF0000C4B0022DA600B4B00221A61094B0C22AC
:102D00005A61084B00229A61064B0022DA6105489D
:102D100003F0CCFA0346002B01D0FFF781FD00BF82
:102D200080BD00BFA41E00200010014080B58AB005
:102D300000AF786007F1140300221A605A609A60AD
:102D4000DA601A617B681B68194A93422CD1002310
:102D50003B61184B5B6C174A43F010035364154BEF
:102D60005B6C03F010033B613B690023FB60114B7C
:102D70001B6B104A43F0010313630E4B1B6B03F0F4
:102D80000103FB60FB684FF4C0637B610223BB61FE
:102D90000023FB6103233B6207237B6207F11403DB
:102DA0001946054801F000FB00BF2837BD4680BD2D
:102DB000001001400038024000000240DFF834D02B
:102DC000FFF7EAFD0C480D490D4A002302E0D458F4
:102DD000C4500433C4188C42F9D30A4A0A4C002365
:102DE00001E013600432A242FBD305F03BF8FFF789
:102DF00099FB7047000002200000002060000020C6
:102E00007C5C02086000002038200020FEE7000003
:102E100080B500AF0E4B1B680D4A43F4007313607E
:102E20000B4B1B680A4A43F480631360084B1B6812
:102E3000074A43F480731360032000F003FF0F2060
:102E400000F008F8FFF7F2FC0023184680BD00BF31
:102E5000003C024080B582B000AF7860124B1A6827
:102E6000124B1B7819464FF47A73B3FBF1F3B2FBA4
:102E7000F3F3184600F01BFF0346002B01D001239B
:102E80000EE07B680F2B0AD8002279684FF0FF30E4
:102E900000F0E3FE064A7B681360002300E0012394
:102EA00018460837BD4680BD040000200C000020F5
:102EB0000800002080B400AF064B1B781A46064B72
:102EC0001B681344044A136000BFBD465DF8047BD1
:102ED000704700BF0C000020EC1E002080B400AF43
:102EE000034B1B681846BD465DF8047B704700BF66
:102EF000EC1E002080B584B000AF7860FFF7EEFFD5
:102F0000B8607B68FB60FB68B3F1FF3F05D00A4BFC
:102F10001B781A46FB681344FB6000BFFFF7DEFF17
:102F20000246BB68D31AFA689A42F7D800BF00BFBE
:102F30001037BD4680BD00BF0C00002080B584B0B6
:102F400000AF78600023FB737B68002B01D1012365
:102F500033E07B681B6C002B09D17868FDF786FE97
:102F60007B6800225A647B68002283F83C207B68DF
:102F70001B6C03F01003002B18D17B681B6C23F42F
:102F8000885323F0020343F002027B681A647868D6
:102F900000F00AFC7B6800225A647B681B6C23F0FB
:102FA000030343F001027B681A6401E00123FB7311
:102FB0007B68002283F83C20FB7B18461037BD4617
:102FC00080BD000080B485B000AF78600023BB6096
:102FD0007B6893F83C30012B01D10223B2E07B687F
:102FE000012283F83C207B681B689B6803F0010387
:102FF000012B18D07B681B689A687B681B6842F0BD
:1030000001029A60524B1B68524AA2FB03239A0C9E
:1030100013465B001344BB6002E0BB68013BBB602E
:10302000BB68002BF9D17B681B689B6803F0010328
:10303000012B7AD17B681B6C23F4E06323F001033E
:1030400043F480727B681A647B681B685B6803F4D6
:103050008063002B07D07B681B6C23F4405343F440
:1030600080527B681A647B681B6C03F48053B3F551
:10307000805F06D17B685B6C23F006027B685A6434
:1030800002E07B6800225A647B68002283F83C20BF
:10309000314BFB607B681B686FF022021A60FB6893
:1030A0005B6803F01F03002B2AD17B681B682B4A47
:1030B000934215D07B681B68294A934205D1264B61
:1030C0005B6803F01F03002B0AD07B681B68254A4E
:1030D000934236D1204B5B6803F01003002B30D1B4
:1030E0007B681B689B6803F04053002B29D17B68E9
:1030F0001B689A687B681B6842F080429A6020E0F7
:103100007B681B68154A93421BD17B681B689B68D0
:1031100003F04053002B14D17B681B689A687B68CE
:103120001B6842F080429A600BE07B681B6C43F0A6
:1031300010027B681A647B685B6C43F001027B6859
:103140005A64002318461437BD465DF8047B704767
:103150000400002083DE1B430023014000200140C7
:10316000002101400022014080B483B000AF7860AC
:103170007B6893F83C30012B01D1022321E07B686E
:10318000012283F83C207B681B689A687B681B6877
:1031900022F001029A607B681B689B6803F00103C0
:1031A000002B09D17B681B6C23F4885323F00103A7
:1031B00043F001027B681A647B68002283F83C209C
:1031C000002318460C37BD465DF8047B704780B578
:1031D00084B000AF786039600023FB607B681B68B7
:1031E0009B6803F48063B3F5806F13D17B681B6821
:1031F0009B6803F48073B3F5807F0BD17B681B6CF5
:1032000043F020027B681A647B68002283F83C202C
:10321000012363E0FFF762FEF86021E03B68B3F151
:10322000FF3F1DD03B68002B07D0FFF757FE02463B
:10323000FB68D31A3A689A4212D27B681B681B68F3
:1032400003F00203022B0BD07B681B6C43F00402DB
:103250007B681A647B68002283F83C2003233DE0EE
:103260007B681B681B6803F00203022BD6D17B68C6
:103270001B686FF012021A607B681B6C43F40072CB
:103280007B681A647B681B689B6803F04053002BC3
:1032900023D17B681B7E002B1FD17B681B68DB6AF8
:1032A00003F47003002B06D07B681B689B6803F453
:1032B0008063002B11D17B681B6C23F480727B68C8
:1032C0001A647B681B6C03F48053002B05D17B6868
:1032D0001B6C43F001027B681A6400231846103708
:1032E000BD4680BD80B588B000AFF860B9607A6037
:1032F00000237B610023FB77FB6893F83C30012BB4
:1033000001D10223EBE0FB68012283F83C20FB683B
:103310001B689B6803F00103012B18D0FB681B6836
:103320009A68FB681B6842F001029A606E4B1B684A
:103330006E4AA2FB03239A0C13465B0013447B6185
:1033400002E07B69013B7B617B69002BF9D1FB6863
:103350001B689B6803F48073B3F5807F07D1FB681B
:103360001B689A68FB681B6822F480729A60FB688D
:103370001B689B6803F00103012B40F0A380FB68EE
:103380001B6C23F4E06323F0010343F48072FB68B9
:103390001A64FB681B685B6803F48063002B07D02A
:1033A000FB681B6C23F4405343F48052FB681A649F
:1033B000FB681B6C03F48053B3F5805F06D1FB6898
:1033C0005B6C23F00602FB685A6402E0FB68002293
:1033D0005A64FB68002283F83C20454BBB61FB68C4
:1033E0009B6B444ADA63FB689B6B434A1A64FB6835
:1033F0009B6B424ADA64FB681B686FF022021A601A
:10340000FB681B685A68FB681B6842F080625A6060
:10341000FB681B689A68FB681B6842F480729A60BC
:10342000FB68986BFB681B684C331946BA687B686D
:1034300000F0F8FC0346FB77BB695B6803F01F03F1
:10344000002B2AD1FB681B682D4A934215D0FB68DC
:103450001B682C4A934205D1254B5B6803F01F0380
:10346000002B0AD0FB681B68274A934236D1204BB9
:103470005B6803F01003002B30D1FB681B689B686E
:1034800003F04053002B29D1FB681B689A68FB6846
:103490001B6842F080429A6020E0FB681B68184A73
:1034A00093421BD1FB681B689B6803F04053002BC1
:1034B00014D1FB681B689A68FB681B6842F0804265
:1034C0009A600BE0FB681B6C43F01002FB681A6407
:1034D000FB685B6C43F00102FB685A64FB7F184693
:1034E0002037BD4680BD00BF0400002083DE1B43A3
:1034F00000230140A13900085B3A0008773A000830
:1035000000200140002101400022014080B483B02E
:1035100000AF78607B681B68DB6C18460C37BD46D3
:103520005DF8047B704780B483B000AF786000BF63
:103530000C37BD465DF8047B704780B483B000AFA4
:10354000786000BF0C37BD465DF8047B704780B4DF
:1035500083B000AF786000BF0C37BD465DF8047BD8
:103560007047000080B485B000AF786039600023F8
:10357000BB607B6893F83C30012B01D1022305E14D
:103580007B68012283F83C203B681B68092B25D906
:103590007B681B68D9683B681B689BB21A46134658
:1035A0005B0013441E3B072202FA03F3DA437B68F5
:1035B0001B680A40DA607B681B68D9683B689A68B8
:1035C0003B681B689BB2184603465B0003441E3BE6
:1035D0009A407B681B680A43DA6022E07B681B68BC
:1035E00019693B681B689BB21A4613465B0013447B
:1035F000072202FA03F3DA437B681B680A401A6168
:103600007B681B6819693B689A683B681B689BB2BA
:10361000184603465B0003449A407B681B680A43D4
:103620001A613B685B68062B24D87B681B68596B62
:103630003B685A6813469B001344053B1F2202FA5D
:1036400003F3DA437B681B680A405A637B681B6894
:10365000596B3B681B689BB218463B685A68134617
:103660009B001344053B00FA03F27B681B680A4386
:103670005A634CE03B685B680C2B24D87B681B6862
:10368000196B3B685A6813469B001344233B1F2267
:1036900002FA03F3DA437B681B680A401A637B680B
:1036A0001B68196B3B681B689BB218463B685A68DD
:1036B00013469B001344233B00FA03F27B681B680C
:1036C0000A431A6323E07B681B68D96A3B685A681F
:1036D00013469B001344413B1F2202FA03F3DA43D3
:1036E0007B681B680A40DA627B681B68D96A3B68A2
:1036F0001B689BB218463B685A6813469B001344EC
:10370000413B00FA03F27B681B680A43DA62224BF2
:10371000FB607B681B68214A934209D13B681B68A8
:10372000122B05D1FB685B6843F48002FB685A608A
:103730007B681B68194A934223D13B681B68102B96
:1037400003D03B681B68112B1BD1FB685B6843F4FB
:103750000002FB685A603B681B68102B11D1104BAC
:103760001B68104AA2FB03239A0C13469B001344C8
:103770005B00BB6002E0BB68013BBB60BB68002B29
:10378000F9D17B68002283F83C20002318461437C7
:10379000BD465DF8047B70470023014000200140D6
:1037A0000400002083DE1B4380B485B000AF786046
:1037B000794BFB60FB685B6823F44032FB685A601E
:1037C000FB685A687B685B681A43FB685A607B68D1
:1037D0001B685A687B681B6822F480725A607B6899
:1037E0001B6859687B681B691A027B681B680A435F
:1037F0005A607B681B685A687B681B6822F04072BD
:103800005A607B681B6859687B689A687B681B688C
:103810000A435A607B681B689A687B681B6822F4BD
:1038200000629A607B681B6899687B68DA687B68CD
:103830001B680A439A607B689B6A584A934222D06D
:103840007B681B689A687B681B6822F070629A60CC
:103850007B681B6899687B689A6A7B681B680A4367
:103860009A607B681B689A687B681B6822F04052EC
:103870009A607B681B6899687B68DA6A7B681B685A
:103880000A439A600FE07B681B689A687B681B6834
:1038900022F070629A607B681B689A687B681B687C
:1038A00022F040529A607B681B689A687B681B68AC
:1038B00022F002029A607B681B6899687B681B7E15
:1038C0005A007B681B680A439A607B6893F8203033
:1038D000002B1BD07B681B685A687B681B6842F40E
:1038E00000625A607B681B685A687B681B6822F418
:1038F00060425A607B681B6859687B685B6A013B61
:103900005A037B681B680A435A6007E07B681B68A0
:103910005A687B681B6822F400625A607B681B68E7
:10392000DA6A7B681B6822F47002DA627B681B68C3
:10393000D96A7B68DB69013B1A057B681B680A430F
:10394000DA627B681B689A687B681B6822F40072E5
:103950009A607B681B6899687B6893F830305A02DC
:103960007B681B680A439A607B681B689A687B685F
:103970001B6822F480629A607B681B6899687B6888
:103980005B699A027B681B680A439A6000BF143720
:10399000BD465DF8047B7047002301400100000F25
:1039A00080B584B000AF78607B689B6BFB60FB6880
:1039B0001B6C03F05003002B3CD1FB681B6C43F4E1
:1039C0000072FB681A64FB681B689B6803F0405335
:1039D000002B2BD1FB681B7E002B27D1FB681B68BB
:1039E000DB6A03F47003002B06D0FB681B689B683E
:1039F00003F48063002B19D1FB681B685A68FB68CD
:103A00001B6822F020025A60FB681B6C23F4807252
:103A1000FB681A64FB681B6C03F48053002B05D110
:103A2000FB681B6C43F00102FB681A64F868FFF73F
:103A30007AFD0EE0FB681B6C03F01003002B03D033
:103A4000F868FFF784FD04E0FB689B6BDB6C78682B
:103A5000984700BF1037BD4680BD80B584B000AF29
:103A600078607B689B6BFB60F868FFF766FD00BFC2
:103A70001037BD4680BD80B584B000AF78607B68EC
:103A80009B6BFB60FB6840221A64FB685B6C43F035
:103A90000402FB685A64F868FFF759FD00BF10374D
:103AA000BD4680BD80B485B000AF78607B6803F010
:103AB0000703FB600C4BDB68BB60BA684FF6FF0383
:103AC0001340BB60FB681A02BB68134343F0BF633B
:103AD00043F40033BB60044ABB68D36000BF1437B3
:103AE000BD465DF8047B704700ED00E080B400AF98
:103AF000044BDB681B0A03F007031846BD465DF85C
:103B0000047B704700ED00E080B483B000AF034653
:103B1000FB7197F90730002B0BDBFB7903F01F02D9
:103B2000074997F907305B09012000FA02F241F8D2
:103B3000232000BF0C37BD465DF8047B704700BFF3
:103B400000E100E080B483B000AF03463960FB7150
:103B500097F90730002B0ADB3B68DAB20C4997F97A
:103B600007301201D2B20B4483F800230AE03B680D
:103B7000DAB20849FB7903F00F03043B1201D2B219
:103B80000B441A7600BF0C37BD465DF8047B7047C6
:103B900000E100E000ED00E080B489B000AFF86023
:103BA000B9607A60FB6803F00703FB61FB69C3F14E
:103BB0000703042B28BF0423BB61FB690433062BD6
:103BC00002D9FB69033B00E000237B614FF0FF3229
:103BD000BB6902FA03F3DA43BB681A407B699A4077
:103BE0004FF0FF317B6901FA03F3D9437B680B4047
:103BF000134318462437BD465DF8047B7047000028
:103C000080B582B000AF78607B68013BB3F1807F04
:103C100001D301230FE00A4A7B68013B53600F2167
:103C20004FF0FF30FFF78EFF054B00229A60044BE8
:103C300007221A60002318460837BD4680BD00BF22
:103C400010E000E080B582B000AF78607868FFF7E0
:103C500029FF00BF0837BD4680BD80B586B000AFE4
:103C60000346B9607A60FB7300237B61FFF73EFF78
:103C700078617A68B9687869FFF78EFF024697F92C
:103C80000F3011461846FFF75DFF00BF1837BD46DD
:103C900080BD80B582B000AF0346FB7197F9073055
:103CA0001846FFF731FF00BF0837BD4680BD80B51D
:103CB00082B000AF78607868FFF7A2FF034618462D
:103CC0000837BD4680BD000080B586B000AF786083
:103CD00000237B61FFF702F938617B68002B01D17B
:103CE000012399E07B68022283F835207B6800225B
:103CF00083F834207B681B681A687B681B6822F095
:103D000001021A600FE0FFF7E9F802463B69D31A97
:103D1000052B08D97B6820225A657B68032283F82B
:103D20003520032378E07B681B681B6803F00103E0
:103D3000002BE8D17B681B681B687B617A69384B74
:103D400013407B617B685A687B689B681A437B6879
:103D5000DB681A437B681B691A437B685B691A43FB
:103D60007B689B691A437B68DB691A437B681B6A23
:103D700013437A6913437B617B685B6A042B07D129
:103D80007B68DA6A7B681B6B13437A6913437B6138
:103D90007B681B687A691A607B681B685B697B615A
:103DA0007B6923F007037B617B685B6A7A69134355
:103DB0007B617B685B6A042B17D17B689B6A7A699D
:103DC00013437B617B68DB6A002B0ED0786800F0C0
:103DD0006FFA0346002B08D07B6840225A657B6847
:103DE000012283F83520012316E07B681B687A697D
:103DF0005A61786800F026FA0346FB607B68DB6D49
:103E00003F229A40FB689A607B6800225A657B6873
:103E1000012283F83520002318461837BD4680BD9F
:103E20003F8010F080B586B000AFF860B9607A606E
:103E30003B600023FB75FB689B6D3B61FB6893F85F
:103E40003430012B01D1022340E0FB68012283F8CA
:103E50003420FB6893F83530DBB2012B2FD1FB689F
:103E6000022283F83520FB6800225A653B687A6895
:103E7000B968F86800F0B8F9FB68DB6D3F229A403A
:103E80003B699A60FB681B681A68FB681B6842F014
:103E900016021A60FB681B6C002B07D0FB681B68BE
:103EA0001A68FB681B6842F008021A60FB681B680E
:103EB0001A68FB681B6842F001021A6005E0FB68A3
:103EC000002283F834200223FB75FB7D1846183747
:103ED000BD4680BD80B586B000AF78600023BB6072
:103EE0008E4B1B688E4AA2FB03239B0A7B617B6877
:103EF0009B6D3B613B691B68FB607B68DB6D082247
:103F00009A40FB681340002B1AD07B681B681B6823
:103F100003F00403002B13D07B681B681A687B68CE
:103F20001B6822F004021A607B68DB6D08229A404D
:103F30003B699A607B685B6D43F001027B685A6560
:103F40007B68DB6D01229A40FB681340002B12D086
:103F50007B681B685B6903F08003002B0BD07B68D8
:103F6000DB6D01229A403B699A607B685B6D43F090
:103F700002027B685A657B68DB6D04229A40FB680D
:103F80001340002B12D07B681B681B6803F00203F0
:103F9000002B0BD07B68DB6D04229A403B699A6052
:103FA0007B685B6D43F004027B685A657B68DB6D60
:103FB00010229A40FB681340002B43D07B681B689B
:103FC0001B6803F00803002B3CD07B68DB6D1022DC
:103FD0009A403B699A607B681B681B6803F48023E6
:103FE000002B18D07B681B681B6803F40023002B90
:103FF00008D17B681B6C002B24D07B681B6C786815
:1040000098471FE07B689B6C002B1BD07B689B6CE8
:104010007868984716E07B681B681B6803F4807318
:10402000002B07D17B681B681A687B681B6822F02D
:1040300008021A607B681B6C002B03D07B681B6C2A
:10404000786898477B68DB6D20229A40FB681340B4
:10405000002B00F08F807B681B681B6803F0100347
:10406000002B00F087807B68DB6D20229A403B6943
:104070009A607B6893F83530DBB2052B36D17B68CC
:104080001B681A687B681B6822F016021A607B683E
:104090001B685A697B681B6822F080025A617B6842
:1040A0001B6C002B03D17B689B6C002B07D07B68BB
:1040B0001B681A687B681B6822F008021A607B681C
:1040C000DB6D3F229A403B699A607B68012283F84E
:1040D00035207B68002283F834207B681B6D002B21
:1040E0007ED07B681B6D7868984779E07B681B6899
:1040F0001B6803F48023002B1DD07B681B681B68A2
:1041000003F40023002B0DD17B685B6C002B31D0B6
:104110007B685B6C786898472CE000BF0400002047
:10412000B5814E1B7B68DB6B002B23D07B68DB6B80
:10413000786898471EE07B681B681B6803F48073EF
:10414000002B0FD17B681B681A687B681B6822F004
:1041500010021A607B68012283F835207B680022F8
:1041600083F834207B68DB6B002B03D07B68DB6B30
:10417000786898477B685B6D002B32D07B685B6DFD
:1041800003F00103002B22D07B68052283F8352041
:104190007B681B681A687B681B6822F001021A6042
:1041A000BB680133BB607A699A4207D37B681B689E
:1041B0001B6803F00103002BF2D100E000BF7B6815
:1041C000012283F835207B68002283F834207B6845
:1041D000DB6C002B05D07B68DB6C7868984700E0CF
:1041E00000BF1837BD4680BD80B485B000AFF86011
:1041F000B9607A603B60FB681B681A68FB681B68E3
:1042000022F480221A60FB681B683A685A60FB68D7
:104210009B68402B08D1FB681B687A689A60FB6832
:104220001B68BA68DA6007E0FB681B68BA689A60C6
:10423000FB681B687A68DA6000BF1437BD465DF81A
:10424000047B704780B485B000AF78607B681B68E2
:10425000DBB2103B144AA2FB03231B09FB60134A89
:10426000FB6813441B781A467B68DA65FB68032BEE
:1042700009D97B681B6823F47F7323F003031A1D9D
:104280007B689A6507E07B681B6823F47F7323F0E3
:1042900003037A6893657B689B6D18461437BD46A7
:1042A0005DF8047B704700BFABAAAAAAC8870008C4
:1042B00080B485B000AF78600023FB737B689B6A95
:1042C000BB607B689B69002B1FD1BB68032B56D852
:1042D00001A252F823F000BFE9420008FB420008A7
:1042E000E94200087F4300087B68DB6A03F08073C3
:1042F000002B46D00123FB7343E07B68DB6AB3F1FC
:10430000C07F40D10123FB733DE07B689B69B3F51F
:10431000005F21D1BB68032B37D801A252F823F0EC
:10432000314300083743000831430008494300087F
:104330000123FB7330E07B68DB6A03F08073002BA2
:1043400025D00123FB7322E07B68DB6AB3F1C07FD9
:104350001FD10123FB731CE0BB68022B03D9BB6890
:10436000032B03D018E00123FB7315E07B68DB6AA5
:1043700003F08073002B0ED00123FB730BE000BF12
:104380000AE000BF08E000BF06E000BF04E000BF95
:1043900002E000BF00E000BFFB7B18461437BD46BB
:1043A0005DF8047B704700BF80B489B000AF7860CF
:1043B000396000237B6100233B610023BB61002344
:1043C000FB616BE10122FB6902FA03F37B613B684D
:1043D0001B687A6913403B613A697B699A4240F0F5
:1043E0005A813B685B6803F00303012B05D03B68EF
:1043F0005B6803F00303022B30D17B689B68BB61D1
:10440000FB695B00032202FA03F3DB43BA69134042
:10441000BB613B68DA68FB695B0002FA03F3BA69C7
:104420001343BB617B68BA699A607B685B68BB6158
:104430000122FB6902FA03F3DB43BA691340BB6153
:104440003B685B681B0903F00102FB6902FA03F396
:10445000BA691343BB617B68BA695A603B685B68A1
:1044600003F00303032B17D07B68DB68BB61FB6998
:104470005B00032202FA03F3DB43BA691340BB611A
:104480003B689A68FB695B0002FA03F3BA6913435D
:10449000BB617B68BA69DA603B685B6803F0030361
:1044A000022B23D1FB69DA087B68083253F82230EB
:1044B000BB61FB6903F007039B000F2202FA03F3C1
:1044C000DB43BA691340BB613B681A69FB6903F0BF
:1044D00007039B0002FA03F3BA691343BB61FB694C
:1044E000DA087B680832B96943F822107B681B68D8
:1044F000BB61FB695B00032202FA03F3DB43BA6989
:104500001340BB613B685B6803F00302FB695B001F
:1045100002FA03F3BA691343BB617B68BA691A6094
:104520003B685B6803F44033002B00F0B480002349
:10453000FB60604B5B6C5F4A43F4804353645D4BAC
:104540005B6C03F48043FB60FB685B4AFB699B0880
:10455000023352F82330BB61FB6903F003039B0075
:104560000F2202FA03F3DB43BA691340BB617B6895
:10457000524A93422BD07B68514A934225D07B68A4
:10458000504A93421FD07B684F4A934219D07B68B0
:104590004E4A934213D07B684D4A93420DD07B68BC
:1045A0004C4A934207D07B684B4A934201D1072380
:1045B0000EE008230CE006230AE0052308E00423AC
:1045C00006E0032304E0022302E0012300E00023CD
:1045D000FA6902F0030292009340BA691343BB6187
:1045E0003549FB699B080233BA6941F823203B4BEC
:1045F0009B68BB613B69DB43BA691340BB613B68A5
:104600005B6803F48013002B03D0BA693B69134342
:10461000BB61324ABB699360304BDB68BB613B696D
:10462000DB43BA691340BB613B685B6803F400136A
:10463000002B03D0BA693B691343BB61274ABB69AE
:10464000D360264B5B68BB613B69DB43BA691340AF
:10465000BB613B685B6803F40033002B03D0BA698D
:104660003B691343BB611D4ABB6953601B4B1B680D
:10467000BB613B69DB43BA691340BB613B685B6864
:1046800003F48033002B03D0BA693B691343BB6149
:10469000124ABB691360FB690133FB61FB690F2B95
:1046A0007FF690AE00BF00BF2437BD465DF8047BA7
:1046B000704700BF0038024000380140000002404F
:1046C0000004024000080240000C024000100240BA
:1046D0000014024000180240001C0240003C01404F
:1046E00080B582B000AF0346FB80084B5A69FB8857
:1046F0001340002B06D0054AFB885361FB881846FF
:10470000FDF7F2FF00BF0837BD4680BD003C014009
:1047100080B586B000AF78607B68002B01D10123A3
:1047200067E27B681B6803F00103002B75D0884BA0
:104730009B6803F00C03042B0CD0854B9B6803F0A3
:104740000C03082B12D1824B5B6803F48003B3F592
:10475000800F0BD17E4B1B6803F40033002B5BD022
:104760007B685B68002B57D1012342E27B685B6862
:10477000B3F5803F06D1764B1B68754A43F480330E
:1047800013601DE07B685B68B3F5A02F0CD1704B04
:104790001B686F4A43F4802313606D4B1B686C4A9F
:1047A00043F4803313600BE0694B1B68684A23F4C1
:1047B00080331360664B1B68654A23F480231360C3
:1047C0007B685B68002B13D0FEF788FB386108E03C
:1047D000FEF784FB02463B69D31A642B01D90323FD
:1047E00007E25B4B1B6803F40033002BF0D014E0AE
:1047F000FEF774FB386108E0FEF770FB02463B6988
:10480000D31A642B01D90323F3E1514B1B6803F442
:104810000033002BF0D100E000BF7B681B6803F081
:104820000203002B63D04A4B9B6803F00C03002B60
:104830000BD0474B9B6803F00C03082B1CD1444B57
:104840005B6803F48003002B16D1414B1B6803F017
:104850000203002B05D07B68DB68012B01D001230C
:10486000C7E13B4B1B6823F0F8027B681B69DB0048
:10487000374913430B603AE07B68DB68002B20D09C
:10488000344B01221A60FEF729FB386108E0FEF77D
:1048900025FB02463B69D31A022B01D90323A8E169
:1048A0002B4B1B6803F00203002BF0D0284B1B6836
:1048B00023F0F8027B681B69DB00254913430B607A
:1048C00015E0244B00221A60FEF708FB386108E06F
:1048D000FEF704FB02463B69D31A022B01D90323DE
:1048E00087E11B4B1B6803F00203002BF0D17B68B0
:1048F0001B6803F00803002B36D07B685B69002B34
:1049000016D0154B01221A60FEF7E8FA386108E06C
:10491000FEF7E4FA02463B69D31A022B01D90323BE
:1049200067E10B4B5B6F03F00203002BF0D01BE041
:10493000094B00221A60FEF7D1FA38610EE0FEF74B
:10494000CDFA02463B69D31A022B07D9032350E163
:104950000038024000004742800E4742884B5B6FA0
:1049600003F00203002BEAD17B681B6803F0040309
:10497000002B00F097800023FB75814B1B6C03F02C
:104980008053002B0FD10023BB607D4B1B6C7C4AF6
:1049900043F0805313647A4B1B6C03F08053BB606D
:1049A000BB680123FB75774B1B6803F48073002BF6
:1049B00018D1744B1B68734A43F480731360FEF77D
:1049C0008DFA386108E0FEF789FA02463B69D31A8E
:1049D000022B01D903230CE16A4B1B6803F480739B
:1049E000002BF0D07B689B68012B06D1644B1B6FBA
:1049F000634A43F0010313671CE07B689B68052B47
:104A00000CD15F4B1B6F5E4A43F0040313675C4B92
:104A10001B6F5B4A43F0010313670BE0584B1B6F9E
:104A2000574A23F001031367554B1B6F544A23F079
:104A3000040313677B689B68002B15D0FEF74EFAC2
:104A400038610AE0FEF74AFA02463B69D31A41F29E
:104A50008832934201D90323CBE0494B1B6F03F00B
:104A60000203002BEED014E0FEF738FA38610AE0BA
:104A7000FEF734FA02463B69D31A41F28832934278
:104A800001D90323B5E03E4B1B6F03F00203002B5B
:104A9000EED1FB7D012B05D1394B1B6C384A23F03D
:104AA000805313647B689B69002B00F0A180344B1A
:104AB0009B6803F00C03082B5CD07B689B69022B7E
:104AC00041D1314B00221A60FEF708FA386108E044
:104AD000FEF704FA02463B69D31A022B01D90323DD
:104AE00087E0274B1B6803F00073002BF0D17B6835
:104AF000DA697B681B6A1A437B685B6A9B011A430D
:104B00007B689B6A5B08013B1B041A437B68DB6A7A
:104B10001B061B4913434B601B4B01221A60FEF717
:104B2000DDF9386108E0FEF7D9F902463B69D31A8E
:104B3000022B01D903235CE0114B1B6803F00073C7
:104B4000002BF0D054E0104B00221A60FEF7C6F99B
:104B5000386108E0FEF7C2F902463B69D31A022B1E
:104B600001D9032345E0064B1B6803F00073002BBB
:104B7000F0D13DE07B689B69012B07D1012338E030
:104B80000038024000700040600047421B4B5B68E9
:104B9000FB607B689B69012B28D0FB6803F48002D3
:104BA0007B68DB699A4221D1FB6803F03F027B6896
:104BB0001B6A9A421AD1FA6847F6C07313407A68A2
:104BC000526A9201934211D1FB6803F440327B6830
:104BD0009B6A5B08013B1B049A4207D1FB6803F008
:104BE00070627B68DB6A1B069A4201D0012300E0F9
:104BF000002318461837BD4680BD00BF003802406C
:104C000080B584B000AF786039607B68002B01D13B
:104C10000123CCE0684B1B6803F007033A689A4213
:104C20000CD9654B3A68D2B21A70634B1B6803F01B
:104C300007033A689A4201D00123B8E07B681B68F9
:104C400003F00203002B20D07B681B6803F00403F1
:104C5000002B05D0594B9B68584A43F4E0539360AE
:104C60007B681B6803F00803002B05D0534B9B683F
:104C7000524A43F460439360504B9B6823F0F00228
:104C80007B689B684D4913438B607B681B6803F00E
:104C90000103002B44D07B685B68012B07D1474B95
:104CA0001B6803F40033002B19D101237FE07B68DC
:104CB0005B68022B03D07B685B68032B07D13F4BFB
:104CC0001B6803F00073002B09D101236FE03B4BFD
:104CD0001B6803F00203002B01D1012367E0374B6F
:104CE0009B6823F003027B685B68344913438B6045
:104CF000FEF7F4F8F8600AE0FEF7F0F80246FB6809
:104D0000D31A41F28832934201D903234FE02B4B4F
:104D10009B6803F00C027B685B689B009A42EBD1B6
:104D2000254B1B6803F007033A689A420CD2224BCA
:104D30003A68D2B21A70204B1B6803F007033A6836
:104D40009A4201D0012332E07B681B6803F0040320
:104D5000002B08D0194B9B6823F4E0527B68DB687A
:104D6000164913438B607B681B6803F00803002B14
:104D700009D0124B9B6823F460427B681B69DB00FF
:104D80000E4913438B6000F021F802460B4B9B68E1
:104D90001B0903F00F030A49CB5C22FA03F3094A0B
:104DA0001360094B1B681846FEF754F80023184699
:104DB0001037BD4680BD00BF003C024000380240B5
:104DC000B087000804000020080000202DE9B04F43
:104DD00094B000AF00237B640023FB6400233B649A
:104DE0000023BB64794B9B6803F00C03082B0DD0A8
:104DF000082B00F2E180002B02D0042B03D0DBE073
:104E0000734BBB64DBE0734BBB64D8E06F4B5B68F8
:104E100003F03F037B646D4B5B6803F48003002B5E
:104E200063D06A4B5B689B090022BB63FA63BB6B70
:104E3000C3F308033B6300237B63D7E90C45224699
:104E40002B464FF000004FF00001590141EAD261BA
:104E5000500102460B462146511A3961294663EB3F
:104E600001037B614FF000024FF00003D7E904AB70
:104E700059468B01514643EA916351468A01514696
:104E8000B2EB0108594663EB01094FF000024FF005
:104E900000034FEAC90343EA58734FEAC802904639
:104EA0009946234618EB0303BB602B4649EB0303EB
:104EB000FB604FF000024FF00003D7E9024529469E
:104EC0004B02214643EAD15321464A021046194675
:104ED0007B6C0022BB62FA62D7E90A23FBF7DEFC97
:104EE00002460B461346FB6458E0384B5B689B094F
:104EF000002218461146C0F308033B6200237B6280
:104F0000D7E9088942464B464FF000004FF00001B8
:104F1000590141EAD261500102460B464146B2EBCB
:104F2000010A494663EB010B4FF000024FF000030A
:104F30004FEA8B1343EA9A634FEA8A12B2EB0A04F0
:104F400063EB0B054FF000024FF00003EB0043EA68
:104F50005473E20014461D464346E3183B604B463B
:104F600045EB03037B604FF000024FF00003D7E9ED
:104F7000004529468B02214643EA915321468A0285
:104F8000104619467B6C0022BB61FA61D7E9062303
:104F9000FBF784FC02460B461346FB640B4B5B6835
:104FA0001B0C03F0030301335B003B64FA6C3B6CA6
:104FB000B2FBF3F3BB6402E0054BBB6400BFBB6C08
:104FC00018465037BD46BDE8B08F00BF00380240DC
:104FD0000024F40000127A0080B400AF034B1B6879
:104FE0001846BD465DF8047B704700BF04000020F2
:104FF00080B500AFFFF7F0FF0246054B9B689B0AA8
:1050000003F007030349CB5C22FA03F3184680BD83
:1050100000380240C087000880B500AFFFF7DCFF12
:105020000246054B9B685B0B03F007030349CB5C0F
:1050300022FA03F3184680BD00380240C0870008FA
:1050400080B582B000AF78607B68002B01D101236E
:1050500041E07B6893F83D30DBB2002B06D17B68E2
:10506000002283F83C207868FDF794FD7B680222DB
:1050700083F83D207B681A687B6804331946104624
:1050800000F030FD7B68012283F846207B68012216
:1050900083F83E207B68012283F83F207B68012251
:1050A00083F840207B68012283F841207B6801223D
:1050B00083F842207B68012283F843207B68012229
:1050C00083F844207B68012283F845207B68012215
:1050D00083F83D20002318460837BD4680BD0000F8
:1050E00080B485B000AF78607B6893F83D30DBB268
:1050F000012B01D0012346E07B68022283F83D208A
:105100007B681B68234A934222D07B681B68B3F1FB
:10511000804F1DD07B681B681F4A934218D07B6864
:105120001B681E4A934213D07B681B681C4A93423B
:105130000ED07B681B681B4A934209D07B681B68B2
:10514000194A934204D07B681B68184A934211D1D4
:105150007B681B689B6803F00703FB60FB68062BFA
:1051600010D07B681B681A687B681B6842F00102DC
:105170001A6007E07B681B681A687B681B6842F04E
:1051800001021A60002318461437BD465DF8047BFF
:10519000704700BF000001400004004000080040CC
:1051A000000C004000040140004001400018004095
:1051B00080B582B000AF78607B68002B01D10123FD
:1051C00041E07B6893F83D30DBB2002B06D17B6871
:1051D000002283F83C20786800F039F87B680222CE
:1051E00083F83D207B681A687B68043319461046B3
:1051F00000F078FC7B68012283F846207B6801225E
:1052000083F83E207B68012283F83F207B680122DF
:1052100083F840207B68012283F841207B680122CB
:1052200083F842207B68012283F843207B680122B7
:1052300083F844207B68012283F845207B680122A3
:1052400083F83D20002318460837BD4680BD80B452
:1052500083B000AF786000BF0C37BD465DF8047BBB
:105260007047000080B586B000AFF860B9607A6022
:105270007B800023FB75BB68002B09D1FB6893F88A
:105280003E30DBB2022B0CBF01230023DBB222E055
:10529000BB68042B09D1FB6893F83F30DBB2022BCB
:1052A0000CBF01230023DBB215E0BB68082B09D13A
:1052B000FB6893F84030DBB2022B0CBF01230023C4
:1052C000DBB208E0FB6893F84130DBB2022B0CBF85
:1052D00001230023DBB2002B01D0022371E1BB6864
:1052E000002B09D1FB6893F83E30DBB2012B0CBFD9
:1052F00001230023DBB222E0BB68042B09D1FB6849
:1053000093F83F30DBB2012B0CBF01230023DBB24B
:1053100015E0BB68082B09D1FB6893F84030DBB27D
:10532000012B0CBF01230023DBB208E0FB6893F8DC
:105330004130DBB2012B0CBF01230023DBB2002B79
:1053400024D07B68002B02D07B88002B01D1012365
:1053500037E1BB68002B04D1FB68022283F83E20B2
:1053600016E0BB68042B04D1FB68022283F83F20BF
:105370000EE0BB68082B04D1FB68022283F84020B2
:1053800006E0FB68022283F8412001E0012318E1D6
:10539000BB680C2B00F2AE8001A252F823F000BFD4
:1053A000D5530008F5540008F5540008F5540008DA
:1053B0001D540008F5540008F5540008F554000881
:1053C00065540008F5540008F5540008F554000829
:1053D000AD540008FB685B6A7C4ADA63FB685B6A71
:1053E0007B4A1A64FB685B6A7A4ADA64FB68586A2B
:1053F0007968FB681B6834331A467B88FEF712FD18
:105400000346002B01D00123DBE0FB681B68DA6850
:10541000FB681B6842F40072DA606EE0FB689B6A0E
:105420006A4ADA63FB689B6A694A1A64FB689B6A8A
:10543000684ADA64FB68986A7968FB681B683833E5
:105440001A467B88FEF7EEFC0346002B01D00123B1
:10545000B7E0FB681B68DA68FB681B6842F480628F
:10546000DA604AE0FB68DB6A584ADA63FB68DB6AA9
:10547000574A1A64FB68DB6A564ADA64FB68D86AE2
:105480007968FB681B683C331A467B88FEF7CAFCC8
:105490000346002B01D0012393E0FB681B68DA6808
:1054A000FB681B6842F40062DA6026E0FB681B6B55
:1054B000464ADA63FB681B6B454A1A64FB681B6B40
:1054C000444ADA64FB68186B7968FB681B684033F0
:1054D0001A467B88FEF7A6FC0346002B01D0012369
:1054E0006FE0FB681B68DA68FB681B6842F4805257
:1054F000DA6002E00123FB7500BFFB7D002B5FD16A
:10550000FB681B680122B968184600F0DBFDFB68E8
:105510001B68314A934204D0FB681B682F4A9342B0
:1055200001D1012300E00023002B07D0FB681B689A
:105530005A6CFB681B6842F400425A64FB681B68A3
:10554000254A934222D0FB681B68B3F1804F1DD0DF
:10555000FB681B68224A934218D0FB681B68214AEB
:10556000934213D0FB681B681F4A93420ED0FB681E
:105570001B681A4A934209D0FB681B681B4A934276
:1055800004D0FB681B681A4A934211D1FB681B6860
:105590009B6803F007033B613B69062B10D0FB6857
:1055A0001B681A68FB681B6842F001021A6007E07A
:1055B000FB681B681A68FB681B6842F001021A60EE
:1055C000FB7D18461837BD4680BD00BFD559000881
:1055D0007D5A0008435900080000014000040140C2
:1055E0000004004000080040000C00400040014062
:1055F0000018004080B586B000AFF860B9607A60EE
:105600000023FB75FB6893F83C30012B01D102238A
:10561000AEE0FB68012283F83C207B680C2B00F293
:105620009F8001A252F823F05D56000861570008E0
:1056300061570008615700089D560008615700082F
:105640006157000861570008DF56000861570008DD
:1056500061570008615700081F570008FB681B6866
:10566000B968184600F0E4FAFB681B689A69FB68A1
:105670001B6842F008029A61FB681B689A69FB6824
:105680001B6822F004029A61FB681B689969BB6879
:105690001A69FB681B680A439A6164E0FB681B682F
:1056A000B968184600F034FBFB681B689A69FB6810
:1056B0001B6842F400629A61FB681B689A69FB6888
:1056C0001B6822F480629A61FB681B689969BB6859
:1056D0001B691A02FB681B680A439A6143E0FB6876
:1056E0001B68B968184600F089FBFB681B68DA691B
:1056F000FB681B6842F00802DA61FB681B68DA6924
:10570000FB681B6822F00402DA61FB681B68D96938
:10571000BB681A69FB681B680A43DA6123E0FB680F
:105720001B68B968184600F0DDFBFB681B68DA6986
:10573000FB681B6842F40062DA61FB681B68DA6987
:10574000FB681B6822F48062DA61FB681B68D96918
:10575000BB681B691A02FB681B680A43DA6102E036
:105760000123FB7500BFFB68002283F83C20FB7D12
:1057700018461837BD4680BD80B584B000AF78604C
:1057800039600023FB737B6893F83C30012B01D117
:105790000223B4E07B68012283F83C207B6802226C
:1057A00083F83D207B681B689B68BB60BB6823F067
:1057B0007703BB60BB6823F47F43BB607B681B68D7
:1057C000BA689A603B681B68B3F5005F3ED0B3F5DA
:1057D000005F00F28780B3F5805F00F08680B3F54C
:1057E000805F7FD8702B1AD0702B7BD8602B50D065
:1057F000602B77D8502B3CD0502B73D8402B58D0EF
:10580000402B6FD8302B64D0302B6BD8202B60D03E
:10581000202B67D8002B5CD0102B5AD062E07B681D
:1058200018683B6899683B685A683B68DB6800F019
:1058300029FC7B681B689B68BB60BB6843F07703EF
:10584000BB607B681B68BA689A604FE07B68186829
:105850003B6899683B685A683B68DB6800F012FC5B
:105860007B681B689A687B681B6842F480429A6078
:105870003CE07B6818683B6859683B68DB681A46FF
:1058800000F086FB7B681B685021184600F0DFFBA8
:105890002CE07B6818683B6859683B68DB681A46EF
:1058A00000F0A5FB7B681B686021184600F0CFFB69
:1058B0001CE07B6818683B6859683B68DB681A46DF
:1058C00000F066FB7B681B684021184600F0BFFBB8
:1058D0000CE07B681A683B681B681946104600F0AC
:1058E000B6FB03E00123FB7300E000BF7B680122ED
:1058F00083F83D207B68002283F83C20FB7B184620
:105900001037BD4680BD80B483B000AF786000BF63
:105910000C37BD465DF8047B704780B483B000AFA0
:10592000786000BF0C37BD465DF8047B704780B4DB
:1059300083B000AF786000BF0C37BD465DF8047BD4
:10594000704780B584B000AF78607B689B6BFB606C
:10595000FB685B6A7A689A4207D1FB6801221A7772
:10596000FB68012283F83E202AE0FB689B6A7A6884
:105970009A4207D1FB6802221A77FB68012283F85A
:105980003F201DE0FB68DB6A7A689A4207D1FB681A
:1059900004221A77FB68012283F8402010E0FB689C
:1059A0001B6B7A689A4207D1FB6808221A77FB685A
:1059B000012283F8412003E0FB68012283F83D20A7
:1059C000F868FFF7B4FFFB6800221A7700BF1037B2
:1059D000BD4680BD80B584B000AF78607B689B6BAE
:1059E000FB60FB685B6A7A689A420BD1FB68012214
:1059F0001A777B68DB69002B36D1FB68012283F8BC
:105A00003E2031E0FB689B6A7A689A420BD1FB68C2
:105A100002221A777B68DB69002B25D1FB68012203
:105A200083F83F2020E0FB68DB6A7A689A420BD15A
:105A3000FB6804221A777B68DB69002B14D1FB68B2
:105A4000012283F840200FE0FB681B6B7A689A42C2
:105A50000AD1FB6808221A777B68DB69002B03D127
:105A6000FB68012283F84120F868FFF74CFFFB68D0
:105A700000221A7700BF1037BD4680BD80B584B0C4
:105A800000AF78607B689B6BFB60FB685B6A7A6841
:105A90009A4203D1FB6801221A7719E0FB689B6ADE
:105AA0007A689A4203D1FB6802221A7710E0FB68F9
:105AB000DB6A7A689A4203D1FB6804221A7707E00E
:105AC000FB681B6B7A689A4202D1FB6808221A773E
:105AD000F868FFF722FFFB6800221A7700BF103733
